:100000000000012075030000A1020000A102000011
:10001000A1020000A1020000A1020000A102000054
:10002000A1020000A1020000A1020000A102000044
:10003000A1020000A1020000A1020000A102000034
:10004000A1020000A1020000A1020000A102000024
:1002980062B6704772B67047684600F001F8FEE72C
:1002A80070B5044600F07AFC0546224808F030FA9A
:1002B8000F2D9DBF204B214853F82510A5F11001A3
:1002C80088BF1F4808F024FA22681E481E4908F013
:1002D8001FFA62681D491B4808F01AFA1C4808F002
:1002E80017FAA26817481B4908F012FAE2681A4977
:1002F800144808F00DFA164808F00AFA226911485D
:10030800164908F005FA626915490E4808F000FA1E
:100318000F4808F0FDF9A2690A48124908F0F8F9EF
:10032800E2690848104908F0F3F90948BDE8704047
:1003380008F0EEB98020010040200100982001005B
:100348009C200100A8200100B4200100B820010071
:1003580004410100BC200100C0200100C4200100AC
:10036800C8200100CC200100D020010010B500F009
:10037800CBFD72B609480A4A0A49121A00F086FAF1
:1003880009480A490A1A002100F012FA084A094BDA
:100398001A60BDE8104000F027BE00BF0000002032
:1003A800880C00205C610100880C0020003E0020C1
:1003B80000F00020880C00200023CA5CC2540133DE
:1003C800002AFAD1704700BF002312F0010F10B4C1
:1003D80004D00C78013A047001237CB172B1CC5C72
:1003E80003F1010CC454013A44B111F80C400CF16A
:1003F800010300F80C40013A002CEFD110BC704703
:1004080090F9003010B463B1024612F9014F002C84
:10041800FBD10023CC5CD4540133002CFAD110BC9E
:1004280070470246F5E700BF70B41346002A32D081
:1004380090F90020002A30D0024612F9014F002C12
:10044800FBD10C7803F1FF3C0CF00106147014B3D7
:100458004FF0010C9C4502EB0C051AD04EB111F877
:100468000C4002F80C40B4B14FF0020C01359C4529
:100478000FD011F80C600CF10104013502F80C6082
:10048800013504F1010C36B10E5D16551EB19C45BF
:10049800EFD100232B7070BC70470246D1E700BF34
:1004A80010B40023C25CCC5C0133141BE4B224B941
:1004B800002AF7D1104610BC704760B2FBE700BFB6
:1004C80070B41346AAB104780A78A21AD2B2002AE4
:1004D80030D174B15C1E14F0010F944627D04578D2
:1004E8004A782346AA1AD2B2002A23D14FF0010C27
:1004F800EDB9002070BC704701EB0C0500EB0C0453
:100508006A7864780CF1010CA21AD2B200EB0C06DE
:1005180001EB0C0572B9002CEBD074786A78013BBA
:10052800A21AD2B232B90CF1010C002CE1D0013B75
:10053800E2D1DEE750B2DDE7037849B25AB28A4227
:1005480008D033B110F8013F4FFA83FC8C45F8D13D
:1005580070470020704700BF90F9002003462AB179
:10056800024612F9010F0028FBD1D21A981890F907
:1005780000C049B28C4502F0010215D0013883420F
:1005880010D832B190F900208A420CD00138834249
:1005980008D890F900208A4205D010F901CD8C4581
:1005A800F4D1704700207047704700BF90F90030C1
:1005B80033B1034613F9012F002AFBD1181A7047EB
:1005C80018467047D9B190F90020C2B14B1E13F0FC
:1005D800010F02460CD1013243B192F90010013BE0
:1005E80021B112F9011F013B0029F4D1101A7047FB
:1005F800024612F9011F013B0029ECD1F6E7002061
:10060800704700BF70B403780246C3B10E78B6B124
:1006180076B200205BB29E4218BF0C4602D109E0B8
:10062800634507D0657801344FFA85FC002DF7D172
:1006380070BC70470130135C002BEBD1F8E7002049
:10064800F6E700BFF0B40378ABB10E78054677B291
:10065800284666B15BB29F420ED00A4601E0634568
:100668000AD0547801324FFA84FC002CF7D115F8DF
:10067800013F002BECD10020F0BC70472DE9F004BD
:10068800002844D0274E0478002C45D00D78002D42
:1006980045D000274FFA85FA64B2A24518BF0A462A
:1006A80002D124E0A44522D0537801324FFA83FCCA
:1006B800002BF7D1C0190378002B2DD007464FFA2D
:1006C80085FA65B15BB29A4516D00A4601E09C45A9
:1006D80012D0547801324FFA84FC002CF7D117F865
:1006E800013F002BEDD13360BDE8F00470470137BE
:1006F800C45D002CD0D1DDE73B46002FF3D097F93D
:100708000020002AEFD0002103F8011BEBE7054E7B
:1007180030680028E8D0B6E700203060E4E72F46CC
:10072800C8E700BF8C0C002003682DE9F004CBB1AA
:100738001D78ADB10F781E464FFA87FA67B16DB2D2
:10074800AA4513D00A4601E0AC450FD054780132CF
:100758004FFA84FC002CF7D116F8015F002DEDD17B
:10076800002202601846BDE8F00470473246002EA9
:10077800F7D0002102F8011B0260F3E7034608B92D
:1007880018467047017879B140780028F8D01A46A1
:1007980003E0D07802320028F2D0517091781070BE
:1007A8000029F6D1184670470B461846704700BF17
:1007B80010F0030F30B404462AD101F0FF0343EAD6
:1007C800032C43EA0C25032A43EA052520D9A2F184
:1007D800040C0423BCF1030F0560CCF3800410D98A
:1007E8002CB1A2F108040823032C456009D903F1B0
:1007F800040CC5500CF10403D41A032C40F80C5017
:10080800F5D8043A22F00304231DC41802F00302A9
:10081800AAB1531E03F001050123C9B29A422170FF
:100828000DD01DB102239A42617008D003F1010C6A
:10083800E1540CF101039A4204F80C10F6D130BCD3
:10084800704700BF034610B41046E2B11C7802F1AD
:10085800FF3C012282420C700CEA020413D034B12E
:1008680093F801C00222824281F801C00BD09C5C3F
:1008780002F1010C8C5413F80C400CF10102824275
:1008880001F80C40F3D1084610BC704741EA000358
:1008980013F0030F30B404460D4628D1032A26D995
:1008A8000C68A2F1040C0423BCF1030F0460CCF320
:1008B800800414D934B14D68A2F108040823032C2C
:1008C80045600CD9CC5803F1040CC4500CF1040356
:1008D80051F80C50D41A032C40F80C50F2D8043AB2
:1008E80022F003052B1DCD1802F00302C418CAB16B
:1008F8002978531E217003F0010101239A4211D077
:1009080021B1697802239A4261700BD015F803C0AF
:10091800591C04F803C015F801C04B1C9A4204F88E
:1009280001C0F3D130BC70478842F0B41FD8E2B19F
:100938000C78012302F1FF3C934204700CEA030493
:1009480013D034B191F801C00223934280F801C05A
:100958000BD0CC5C03F1010CC45411F80C400CF121
:100968000103934200F80C40F3D1F0BC7047002A11
:10097800FBD0891811F8013C8418551E04F8013C75
:1009880005F001064FF0FF33002DEED03EB111F80F
:1009980002CC022A6FF0010304F802CCE5D0CD188E
:1009A80015F8017C03F1FF3CE61806F8017C01EB21
:1009B8000C0515F8017C0CF1FF3304EB0C069D18AF
:1009C80006F8017C002DEAD1CFE700BFF0B403465A
:1009D8009446002A30D005780A78AD1A29D10CF14E
:1009E800FF3616F0010F2A4618D0447848780122BD
:1009F800201AB4461ED19C18881801329F188E18E8
:100A08000132BCF1010C0CF1FF3C12D06478407843
:100A1800201A0FD17C787078201A0BD19C1888186E
:100A280001329F188E180132BCF1010C0CF1FF3C09
:100A3800ECD12846F0BC70471046FBE71346CAB114
:100A480002788A4219D05A1E12F0010F0DD010F800
:100A580001CF13468C4508D1704790F800C08C45EB
:100A680009D010F8012F8A4206D00130013B03F16A
:100A7800FF33F2D170477047704770472DE9F00E89
:100A880091F9003083B081463BB10B4613F9012F31
:100A9800002AFBD1B3EB010A04D1484603B0BDE8F4
:100AA800F00E704799F90030002B40D04B4613F9EF
:100AB800010F0028FBD1C9EB030BD34535DB4846B2
:100AC800BAF1000FEAD00B784FF0000C019319F837
:100AD8000C30019A9A421FD10AF1FF34002314F016
:100AE800010F52460AD046784D780123AE4222467D
:100AF80004D011E07C787578AC420DD1C518CC18BB
:100B08000133C718CE180133013A02F1FF32C5D0BC
:100B18006D786478A542EDD00CF1010CCCEB0B009C
:100B2800824502DC09EB0C00D1E70020B6E79B46C2
:100B3800C3E700BF12F0010FC9B205D090F800C09A
:100B4800013A8C450DD00130531E4AB190F800C0CF
:100B58005A1E8C4505D010F8013F8B42F3D17047DF
:100B68001046704710B5044600B910BD90F9003022
:100B780083B110F9011F0029FBD1001B013007F0D8
:100B8800E9FF014629B10023E25CCA540133002A77
:100B9800FAD110BD0120F2E7002070474EF600534D
:100BA800CEF200035868C0B2704700BF4EF69053AB
:100BB800CEF200039860D9601A6170474EF69053E0
:100BC800002814BF03200020CEF2000358607047AD
:100BD80008B500F083F900F061F800F0E1F842464A
:100BE800106813684FF451614FF0E042C1601A6118
:100BF800002008BD012A2DE9F04415461C4637D0CF
:100C08000021102258680BF097F9022D8246D8BFB0
:100C18001C4F16DC1C4E00251C48216807F078FD87
:100C28002B46504639463246194DA84710B9002080
:100C3800BDE8F0842168174807F06AFD0020BDE888
:100C4800F08400211022A0680BF076F9032D0746E6
:100C5800E0D000211022E0680BF06EF9042D064662
:100C68000DD02069002110220BF0CCF90546D3E7FE
:100C78001968094807F04CFD0020BDE8F084043DE0
:100C8800CAE700BF00400020008000006821010082
:100C9800790B00208C2101004421010030B44EF270
:100CA80010034FF6FE74CEF20003C0F2FF040649AB
:100CB8005C6000200024002501229860C1E90045FD
:100CC8001A6030BC704700BF900C00204EF2100034
:100CD800CEF200008268034B002000219A60C3E92D
:100CE80000017047900C0020052000F0EDB800BF0F
:100CF80010B50446052000F0E7F84DF6836CC4F201
:100D08001B3CACFB00218B0C04FB03F44EF21001DE
:100D1800CEF200018A6894420AD902F18073981EC3
:100D2800041B88688242FCD88B68A342F9D810BD9E
:100D3800141B8868A04202D98B689A42F9D210BD68
:100D48002DE9D04C154B4EF21004CEF200049F68EA
:100D5800A2680446BA4284BF07F18077023FBE1AF0
:100D6800D3E9000110EB060A41F1000B5F46564635
:100D7800C3E900679A60052000F0A6F844F6D3514D
:100D8800C1F26201A1FB00B2002350463946920924
:100D980010F0A0FC001BBDE8D08C00BF900C002018
:100DA800F0B4474E84B042F248046D46CEF20404D3
:100DB80096E80F0085E80F00236842F24C0140F6E0
:100DC8001C02CEF20401C6F20802C3F3811503F037
:100DD8000C07C3F30116096844F2413312680DF198
:100DE800100CC4F6544307EB0C040CEB86000CEB18
:100DF80085019A4254F8107C50F8106C51F8105C38
:100E08003BD04EF2603446F60042C0F21604C0F2FF
:100E1800DC2242F20003CEF20403186B45F2000113
:100E280020F040001863C4F20001486DB2FBF7F7E8
:100E380020F0010048650320C860986B214920F024
:100E480000709863986BB2FBF6F640F040509863D8
:100E5800986BB2FBF5F500F07F409863986B4C6196
:100E680040F4F44C4CF0120098634F608E60CD60F3
:100E78000A610A6004B0F0BC704740F64003C6F24D
:100E880008031A6840F2003022F07F42C0F20100E5
:100E98008242B6D9B2F5003F08D241F22C61C6F2BF
:100EA80008010A68002AACD05409B2E7B2F5403FFD
:100EB800A7D241F6AC64C6F208042268F2E700BF84
:100EC800E8210100A00C0020052803D8024B53F8A4
:100ED8002000704700207047A00C002040F200035B
:100EE800C6F2100300229A601A615A615A621A60A7
:100EF800704700BF46F200034DF64262C4F2000399
:100F0800CAF61542DA60704746F2000345F2FA5213
:100F1800C4F20003C4F66E421A61704746F2000339
:100F2800C4F200034FF0FF314DF642629960CAF6F1
:100F380015426FF0FF00002158605961DA60704770
:100F4800704700BF704700BF704700BF704700BFC1
:100F5800704700BF704700BF704700BF704700BFB1
:100F6800704700BF08B5024807F0BAFBFEE700BFAC
:100F7800202201004046036810B59C69044807F028
:100F8800AFFB204603490AF01FFD002010BD00BF3B
:100F98004C2201000441010008B50348034907F049
:100FA800B7FB002008BD00BF54220100F821010052
:100FB80070B590B040220B48694606F013FD4446D0
:100FC80000286D462668D8BF4FF4E13004DD684636
:100FD80000210A220AF0B0FFA060A3680020336055
:100FE80010B070BD5C22010038B5384C2268A2F5FB
:100FF8004058A8F12008002120224046FFF7D8FBDE
:101008004546A8F11C002860286800211C22FFF72B
:10101800CFFB4246D2F804C02D4B2E4D19682068EC
:101028004CF0010CC2F804C02B682B4A091A116055
:101038001BB908E055F8043F23B198470028F9D0B8
:10104800FFF790FF20684FF44051A0F5405008F09A
:10105800C3F802F071FE0546204807F041FB284618
:101068001F490AF0B1FC08F09DFA1E4841460C6879
:1010780006F02CFD0AF000FF606009F09FFD08F003
:101088002BFB07F09DFB00F039F8174806F01EFD12
:1010980028B1002110220AF04FFF144B18601448A1
:1010A80006F014FD014618B11248802200F054FCE5
:1010B80003F052FC104807F013FB4246106800F09A
:1010C80019FB09F0A7FC09F0A5FCFAE7880C002039
:1010D800880C002000000020B80C002068220100C5
:1010E800044101007022010078220100580000200C
:1010F800842201002832002090220100704700BF9E
:101108000020704770B5A2B0044680222C4902A87E
:10111800FFF7BCFB266BE56AE16BA26B636B2948A2
:1011280000960195256C07F0F3FAA16A626A236AB2
:10113800254807F0EDFA2669E169A2696369234841
:10114800009607F0E5FA2668E168A2686368204817
:10115800009607F0DDFA15F0804F14BF5A227A2264
:1011680015F0005F14BF4323632305F0704C15F09E
:10117800805F14BF562676261648BCF1000FB4BF10
:101188004E216E21009607F0C3FA206C22AA00F0C7
:101198001F01114C02EB8103104A10F0800F14BF9D
:1011A8002146114610F0400F18BF22460C4C53F848
:1011B800803C0C48009407F0ABFA22B070BD00BF29
:1011C80098220100182301006023010084230100F4
:1011D800B4230100E4230100F423010008380100CE
:1011E800F03A0100F823010008B503480BF02CF889
:1011F8000020024B984708BD18240100590B002015
:1012080010B50446044807F083FA2046FFF77AFF32
:10121800BDE81040E8E700BF2C24010010B50446E3
:10122800044807F075FA2046FFF76CFFBDE8104048
:10123800DAE700BF4024010010B50446044807F06F
:1012480067FA2046FFF75EFFBDE81040CCE700BF15
:101258005824010010B50446044807F059FA2046FE
:10126800FFF750FFBDE81040BEE700BF642401004F
:1012780010B50446044807F04BFA2046FFF742FF32
:10128800BDE81040B0E700BF7024010010B5044667
:10129800044807F03DFA2046FFF734FFBDE8104048
:1012A800A2E700BF8024010010B50446044807F0F7
:1012B8002FFA2046FFF726FFBDE8104094E700BF4D
:1012C800942401004FF0FF30704700BF014B1868AD
:1012D800704700BFBC0C0020104B5A689AB1D8B1B7
:1012E800136B9A420FD0012110F0010F0DD08842E4
:1012F80001F1010C0ED01B6B0CF101019A4202D0D6
:101308001B6B9A42F3D1002070471B6B9A42FAD0AC
:101318000221ECE71846704710467047BC0C0020C5
:101328000B4A536883B11268934209D0002001E048
:10133800934206D01B6B0130002BF9D10020704777
:101348000020002AFAD070474FF0FF30704700BFE6
:10135800BC0C002010B5054C23682BB11846D96A7F
:10136800884723680122DA6110BD00BFBC0C002049
:1013780008B5064B84461B680A4623B118466146E1
:101388005B6A984708BD4FF0FF3008BDBC0C0020D1
:1013980008B5054B1B681BB11846996A884708BDF4
:1013A8004FF0FF3008BD00BFBC0C00200349044BC0
:1013B8000868002808BF1846704700BFBC0C00200A
:1013C800B425010070B5084D06466C6844B1214645
:1013D8003046FFF765F828B1246B6B689C42F6D15C
:1013E800002070BD204670BDBC0C002070B5154CA7
:1013F8002368002B21D006F0CFFAA168054611B169
:10140800E068854206D0104806F060FBE5600146BA
:10141800A06098B125680B4E284600E0B168FFF738
:101428003FF850B12268106B85422060F6D106481B
:101438002946BDE8704006F069BD70BD01490D68D8
:10144800F5E700BFBC0C0020BC25010038B50546F7
:10145800144806F03BFB18B11349FFF721F890B187
:10146800124C23687BB17DB91B6B1148236006F0D1
:101478002DFB58B10D4A1168FFF712F830B92168F1
:10148800206988420AD038BD2361EDE72168084801
:1014980006F03CFD216820698842F4D1054B012201
:1014A8001A6038BDC4250100D0250100BC0C0020FD
:1014B800BC2501002C0D002038B50F4D0446696885
:1014C80051B10A4600E01A46136B9942FBD11463E6
:1014D80000202163E06138BD08486C602C6006F08C
:1014E800F5FA18B12968FEF7DBFF18B10348296837
:1014F80006F00CFD6968EBE7BC0C0020BC25010078
:1015080030B587B001AC0A460546054920460BF0C0
:10151800EFFD2846214606F0F9FC07B030BD00BFB4
:10152800D425010030B50C4683B0002855D001AD54
:10153800102229460AF000FD019B207093F9002033
:10154800002A48D1621C002B4AD01846294610228E
:101558000AF0F2FC019B607093F90000002838D172
:10156800A21C002B3FD01846102229460AF0E4FCA2
:10157800019BA07093F90020002A28D1E21C002BBF
:1015880034D01846294610220AF0D6FC019BE07098
:1015980093F90000C8B9221D002B2AD01846102242
:1015A80029460AF0C9FC019B207193F9002052B921
:1015B800621D002B20D01846294610220AF0BCFCD8
:1015C800607103B030BD0133F2E70133E3E7013363
:1015D800D4E70133C4E70133B4E70A4602F8010B44
:1015E80000231370A21C00211170E21C0023137049
:1015F800221D00211170621D00231370E1E700BF56
:1016080010B50C4606F062FA2146FFF78BFF2378E7
:1016180013F0010F01D0002010BD607894F802C0CB
:10162800E27840EA0C010B432179134362790B43BA
:101638001A430CBF0020012010BD00BF30B5024680
:10164800084B094889B0002A18BF03460D4668466A
:1016580019460BF04DFD684629466C46FFF7D0FF4A
:1016680009B030BDD8250100E02501002DE9F0447E
:101678001E4E82B033688246002B31D07468002534
:101688006F4604E0246B7068844210D001356946C7
:101698002846FFF7D3FF0028F4D004F110000622F3
:1016A8006946FFF7F3F8246B70688442EED10F495E
:1016B8000C68234618461A6A5146904700284FF08E
:1016C800000009DAFFF7C2FE33689C42F2D14FF0FE
:1016D800FF3002B0BDE8F08433680221D961F8E731
:1016E800034806F0FDFF4FF0FF30F2E7BC0C002086
:1016F800EC2501002DE9F04E564F002382B0044638
:101708003B6040207B6008F027FE204609F0F6FF8A
:101718000028C0F28F807C68002C00F092804E4830
:1017280006F0D4F98146412008F016FE21464B48C0
:1017380006F0EEFF00256E46DFF818B14946204650
:10174800B9F1000F02D0FEF7ABFE00B32846694698
:10175800FFF774FF684642490622FFF737F901355B
:1017680028BB246B79683F488C4232D006F0B8FF1A
:1017780021463A4806F0CCFFDFF8D8B04946204663
:10178800B9F1000FE2D0FEF78BFE0028DED1364813
:101798003C6006F0A5FF28466946FFF74FFF6846FC
:1017A8002F490622FFF712F901350028D9D004F194
:1017B800100A2B4906225046FFF708F9E8B969468E
:1017C80006225046FFF762F8246B796825488C4258
:1017D800CCD1DBF80010002928D0244806F076F98F
:1017E800F8B1DBF80010FEF75BFED0B90A2007F06D
:1017F80053F8284602B0BDE8F08E062269465046E6
:10180800FFF7E4F80028DAD02146194806F080FFEF
:101818005146184806F07CFF1748694606F078FFDD
:10182800CDE73968114806F071FBDFE70F4806F08D
:101838006DFBDBE72046FFF745FD7C68002C7FF455
:101848006EAF0E4806F04CFF6FF03F0008F084FDC5
:101858002546CEE7BC0C002000260100845001007C
:10186800AC2501000C26010010260100BC25010052
:101878001C2601004826010068260100EC2501000D
:10188800014B02221A607047D00C0020704700BF3D
:10189800014B5860704700BFD00C0020002910B4DD
:1018A8002DDD01234A1E8B4202EA0304028812D06E
:1018B8002CB1022330F803C08B4262440BD003F1F1
:1018C800010C30F8133030F81C40D2180CF1010329
:1018D80012198B42F3D191B201EB124C1FFA8CF31F
:1018E80003EB1C404FF6FE71421CC0F2000102EAF5
:1018F8000100D0F1010038BF002010BC7047012062
:10190800FBE700BF002910B423DD01234A1E8B42E8
:1019180002EA0304028812D02CB1022330F803C073
:101928008B4262440BD003F1010C30F8133030F8CD
:101938001C40D2180CF1010312198B42F3D11FFA83
:1019480082FC0CEB124290B200EB124188B210BC40
:1019580070470020FBE700BF10B491F90030222B3C
:101968002ED0013A002A12DD0B7883B1222B0ED03B
:1019780002F1FF3C1CF0010F1BD0BCF1000200F883
:10198800013B04DD4B7813B10131222B11D1002129
:10199800017010BC70474B78611C002BF7D0222BCC
:1019A800F5D000F8013B6378013A002BEFD0222BE9
:1019B800EDD0013A4C1C002A00F8013BEBDCE6E7CD
:1019C8000131013ACDE700BF08B520B101783039BF
:1019D800CBB2092B02D94FF60F7008BD0A2200219D
:1019E8000AF0AAFA82B2130243EA122080B208BDB2
:1019F80010B506F06BF8BDE81040E5E7094A108815
:101A08004FF6FF72010A41EA00239BB2934207D0C6
:101A18001805030D40F6FF7C634501D0122070477E
:101A28000E20704730000020020A42EA002C1FFAFC
:101A38008CF24FF6FF739A4209D040F6FF7082424B
:101A480005D01305084604491A0D0BF051BB08468A
:101A58000249FEF7B1BC00BF105F010090260100EB
:101A680030B5020642EA106500F47F4345EA0324D4
:101A780000F47F0044EA102283B0C2F3072502F085
:101A8800FF04C2F307430846120E03490095019468
:101A98000BF02EFB03B030BD982601000422FEF7A0
:101AA800F5BE00BF70B51B4E4FF6FF73348816465F
:101AB800220A42EA0425ADB29D4204461BD0062202
:101AC800FEF7E4FE2D050622A01D1349FEF7DEFEF3
:101AD8002A0D15F5801F16D0B6B22D0F330A45EA28
:101AE800022543EA06264FF0810C2682E581A4F8F8
:101AF8000CC0122070BD0622FEF7C8FEA01D0649C4
:101B08000622FEF7C3FEB0B2010A41EA0026A6810A
:101B18000E2070BD30000020D80C0020FFF728BC34
:101B28002DE9F04E934D0D2984B004462861696172
:101B380033DD914E8389728830884FEA122C070A68
:101B48001E0A47EA00204CEA022C46EA032640F621
:101B5800FF724FF6FF7380B21FFA8CFCB6B240F2E8
:101B6800E9579C4508BF9446984214BF034613465C
:101B7800BE4215DDB6F5014F4AD00E3904F10E0705
:101B88001B051B0D40F6FF70834217D0824204BF2D
:101B98004FEA0C52120D934210D004B0BDE8F08EFB
:101BA800A08A1B05060A46EA00271B0D40F6FF70AF
:101BB80016398342BEB204F11607E7D140F6060C87
:101BC80066453AD048F23502964211D0B6F5006F14
:101BD800E3D11B29E1D97888020A42EA002C1FFACE
:101BE8008CF28A4240F3D680644806F091FDD4E72F
:101BF8001B2940F3B980F888020A42EA002C0FFA40
:101C08008CFEBEF1040F7DD05D4806F069FDC4E787
:101C18001129C2DD0005000D9042BED0E789208A57
:101C28003E0A46EA0722060A46EA00271205BEB21D
:101C3800120D123904F11207A2E71B2940F3948010
:101C48003B881A0A42EA032001B20129A5D1788803
:101C5800030A43EA00210FFA81FCBCF5006F9CD10E
:101C680097F804A0BAF1060F97D17A79042A94D18B
:101C7800A969DFF8009100298FD007F1180103AB9B
:101C88000191184601990093FEF700FED9F8180053
:101C9800039A07F1080B9042009B7FF47EAFF88807
:101CA800020A42EA002E1FFA8EF2012A00F0D880BA
:101CB800022A7FF472AFE9692E4C00293FF46DAF18
:101CC800206A00283FF469AF042218460BF1060188
:101CD800FEF7DCFD626A039B9A427FF45EAF5946C9
:101CE8000622206AFEF7D2FD216A0622A06AFEF7C4
:101CF800CDFDE16AA06AFFF73BFB00212162E161AB
:101D0800E1624AE73888020A42EA00210BB2012B55
:101D18007FF47AAF7B88190A41EA032C0FFA8CFE0C
:101D2800BEF5006F7FF470AFB88840F2064290426B
:101D38007FF46AAF134807F11801FFF7AFFE2B6B6A
:101D480007F1080423B907F10E010F48FFF7A6FEB3
:101D5800214606220D48FEF799FD00206C680146D1
:101D680002460346A04718E709481C2206F0D0FCA3
:101D780013E700BFD00C002030000020D02601005F
:101D8800B8260100E80C0020000D0020040D0020FA
:101D9800A42601003B7803F0F00140297FF4FDAE52
:101DA80003F00F03052B3FF7F8AE38460A21FFF77B
:101DB80075FD00283CD0042203A807F11001FEF7A6
:101DC80065FDAB69039A6BB1B3EB020E18BF4FF018
:101DD800010EB2F1FF3F0CBF00200EF001000028F9
:101DE8007FF4DBAEF888020A42EA002399048A0CE1
:101DF800002A7FF4D2AE7B7A012B1DD0112B7FF401
:101E0800CCAE3B8BB7F816E0BA8A190A41EA03242C
:101E1800100A4FEA1E2C4CEA0E2140EA0222A3B215
:101E280007F11C006C6889B292B2083BA047B4E67F
:101E38001F4806F055FCB0E697F814C007F11403E4
:101E4800BCF1050F7FF4A9AE93F801E0BEF1010FD4
:101E58007FF4A3AE07F11801164806F059FC9CE67A
:101E68003246A11D2046FFF71DFE4FF4007CA7F85F
:101E780006C05246064607F10E05594607F11200FC
:101E8800FEF704FD01982946FFF708FE524609F1BE
:101E980008015846FEF7FAFC284609F11801FFF731
:101EA800FDFD204606F11C01FFF762FA75E600BF4A
:101EB800E4260100F42601002DE9F044294D82B002
:101EC800EE6B294940F606023046FFF7EBFD4FF46A
:101ED80080723418062332524FF0080C4FF0040A6F
:101EE8004FF4807604F108071A462371A4F802C05B
:101EF800E68005F1080184F805A03846FEF7C6FC1F
:101F0800A96902AE46F8041D5246314604F10E0096
:101F1800FEF7BCFC0023E375A374E37423756375B3
:101F2800A375EB69A8692A6C83EA0001114201D004
:101F38006B6C83B16B62314607F110000422019388
:101F4800FEF7A4FCE86BC0F11C010919FFF710FAB1
:101F580002B0BDE8F084054806F0C2FBEB696B628D
:101F6800E9E700BFD00C002034000020142701004E
:101F780038B5044610B9054B986438BD034D0020A8
:101F8800A964FEF7DDFE2C65E86438BDD00C00209E
:101F980038B5254805F09AFD044618B12349FEF7DF
:101FA8007FFAE8B9224D6B6D5C1C6C65FFF7D2F9BE
:101FB800AA6D1F4CD2F1010038BF0020FFF746FA86
:101FC80041460868FFF752FBE86D30B1236E0020E8
:101FD800E065DBB90422226038BD0223236038BDE6
:101FE80020461449FEF75CFA28B9114DFFF7B2F9FB
:101FF80004232B6038BD20460F49FEF751FA68B913
:1020080001200B4D6B6D9842CED8EFE70B4942F299
:102018001070FFF7ADFF0A49616038BD0021204606
:102028000A4609F089FFECE7402701004C27010028
:10203800D00C0020D025010050270100891800008D
:102048009518000010B50F4CE36903B910BD0020C6
:10205800FEF776FE636E41F28831C21A8A42F5D9DC
:10206800A16E4A1C042AA26603DC6066BDE8104023
:1020780022E7054806F034FB0020A066BDE81040C2
:1020880086E700BFD00C0020582701002DE9F04456
:1020980082B0089F019117F0010F044615469A4631
:1020A80003D007F11C030022C254002633494523FC
:1020B80023706670CB6EBFB207F11C0290B29AB261
:1020C8004FEA122C4FEA102E4EEA002001334CEA58
:1020D800022ECB66A4F804E04FF0FF334FF0400E19
:1020E80011222372608062721831A4F806E004227B
:1020F800668104F10C000837FEF7C8FB1FFA8AFA5C
:1021080001A90422ADB2BFB204F11000FEF7BEFB74
:102118004FEA1A2C280A3B0A4CEA0A2A40EA052503
:1021280043EA0727A4F814A0E58227836683A21C44
:102138002088638851880232C318508802325B189D
:10214800518802321B18508802325B1851880232BB
:102158001B18508802325B1851881B1892885B182C
:10216800D31898B200EB134C1FFA8CF202EB1C4107
:10217800C843608102B0BDE8F08400BFD00C0020E5
:102188002DE9F04E84B0934699460C9D0E460029E1
:1021980028D1344F344C384604F170010622FEF73A
:1021A80015FC4FF0FF36844600282AD0D4F83CA00E
:1021B80039464FF400625046FFF774FC0AEB0007FB
:1021C800384631465A464B460095FFF75FFFE06BAD
:1021D80005F11C033F1AD919FFF7CAF8002004B00B
:1021E800BDE8F08E1F4F204CB1F1FF3F18BF0746E6
:1021F800384604F170010622FEF7E8FB8446002801
:10220800D4D1D4F828A039464FF400625046CDF80E
:102218000CC0E6612762FFF745FC0AEB00074B4656
:10222800314638465A460095FFF730FFA26AE06B00
:10223800B91A1C3109182A4607F11C00FEF726FBBB
:10224800A36ADDF80CC0FF1A1C3560460126ED199B
:10225800E562A666FEF774FD6066FFF72DFE304660
:10226800BDE700BF34000020D00C00202DE9F04E5F
:102278009449954C01F55C6504F1970727F01F0216
:102288000F35002302F5C06902F5C05C02F5406A0B
:1022980002F5905E25F01F0746460125C1F8A09D6E
:1022A80088B0C1F8A4ADC1F8A8EDC1F8ACCDE3621F
:1022B800A36523662362E3616362E2633668A7620B
:1022C80065658146FFF746F8FFF790F83046FFF757
:1022D800CDF90028C0F2F18005FA09F240F2131B8B
:1022E800C0F2000B02EA0B00784FAA46009225467E
:1022F8008346FEF7EBFF062200F110017448FEF753
:10230800C5FA41460E68C4F800A0019605F044FBE2
:10231800D7F8D8320646984224D001980422011DE5
:102328006C48FEF7B3FA6C4805F0D0FB09F0A4FD41
:1023380068646A4805F0CAFB09F09EFD286468488D
:1023480005F0C4FB09F098FD28636648FFF750FBC9
:10235800654948806548FFF74BFB5C4B624AC3F808
:10236800D8621080B9F1090F2CD9B9F1010FC4F85E
:1023780060A059D051D3B9F1030F01D100F0F4F99D
:102388000021C7F8DC12FFF703F806F0A3FA0646A7
:10239800002840F08A80FFF755FEA26C304632B123
:1023A800FEF7CEFCEA6C2B6D811A994251D823684E
:1023B800032B46D0042B2BD0022BE4D1424EC6F877
:1023C80058A096E7BBF1000F13D0414848490622B0
:1023D800FEF7FCFA0028C8D1FEF7A2FFB0F1FF3FD4
:1023E80029D0002839D1434806F07AF9FFF7D0FD03
:1023F800C9E7009A12F4027FB7D0236B002B33D0C1
:10240800A9690029E1D13C4806F06AF9FEF7A2FF64
:102418004FF0FF3008B0BDE8F08E3848002606605F
:10242800AE6100F04BFCABE7354A0023AB611360AB
:1024380000F07AF8A4E7334806F052F9FEF78AFF6D
:10244800E6E7D7F8DC12A9B9FEF784FFD7F8DC0273
:10245800E0E7A86CAE648047A9E701462A4806F081
:1024680057F9FFF795FD8EE7284806F039F9FEF78A
:1024780071FFCDE70A46264806F04AF9134903AC2E
:10248800D1F8DC22204623490AF032FE21462248B0
:1024980005F03CFD214B1F491A6820460AF028FE2A
:1024A80021461F4805F032FDCEE7FEF753FF1D48D1
:1024B80006F016F94FF0FF30ACE7FEF74BFF4FF090
:1024C800FF30A7E7C81D0020D00C0020C02E002038
:1024D800D80C0020E80C0020842701009027010078
:1024E80098270100A427010030000020AC27010034
:1024F8008826010014280100D42701006033002039
:10250800A8320020F427010034280100B427010074
:102518005C28010080280100842801005800002060
:1025280090280100542801002DE9F047264DDFF8D6
:10253800B4902E682548741C21462C6006F0E8F8F3
:10254800D9F80060224948F235023046FFF7AAFA66
:10255800204F4FF4807C341826F800C006254FF031
:10256800040A4FF008024FF440706280E080394658
:102578002A46257184F805A004F10800FEF786F9BB
:102588005246154904F10E00FEF780F92A463946ED
:1025980004F11200FEF77AF94FF0FF33E376237661
:1025A8006376A376D9F80000C0F11C010919FFF77A
:1025B800B5FA41F288300949FFF7DAFC0848BDE866
:1025C800F047FFF765B900BFA83200209C2801003A
:1025D80034000020D80C0020E80C00201D26000044
:1025E800F12500000C0D002010B5084805F06EFA22
:1025F80018B190F900306E2B03D0BDE8104000F000
:10260800B3B803480322026010BD00BFB028010020
:10261800D00C0020094810B50368042B07DC41F2F0
:1026280088300749FFF7A4FCBDE810407CE705485F
:1026380006F056F8BDE81040FFF7AABCA832002003
:102648001D260000BC280100F0B53C4883B007688F
:10265800FFF7D4F93A4C1C3021683D184B1E042B67
:1026680069D8DFE803F034271A0327004FF4A06184
:102678004FF400733952281D6B803249FDF79CFED8
:102688001725D4F89030D4F88810D4F88C202E4828
:102698000095FFF775FD03B0F0BD4FF4A0624FF44D
:1026A800407E3A522949281DA5F802E0FDF784FE2C
:1026B8001325E6E7B4F884104FF4806C27F800C0BF
:1026C800080A40EA01239AB26A800425D9E74FF440
:1026D800807EAE1C27F800E01D493046FDF76CFEF1
:1026E8001B48FDF763FF411C76181A4F1A493046FC
:1026F800FDF762FE1949B01DFDF75EFE386844F625
:10270800D35CC1F2620CACFB00130E369A09144973
:1027180030460AF0EDFC3046FDF748FF421CBB8806
:10272800B618002730463A460E4900970AF0E0FCF2
:102738003618751BA5E70025A3E700BF0C0D002080
:10274800AC32002010290100040D002000290100EE
:10275800B03200203C000020E428010038290100A4
:10276800EC280100F0280100F0B56E4883B005F0B0
:10277800ADF9002800F0CC8000210A2209F042FCC3
:10278800694DA880694805F0A1F9002800F0B380D8
:1027980000210A2209F036FCB0F57A7F2860C0F0E3
:1027A800AF80634F6349644C086897F90060C4F8C8
:1027B8008800002E7FD1614B61491A6804F19400AA
:1027C800C2F3074CC2F30723170ED2B2CDF800C0EC
:1027D80001970AF08DFC04F19401201D8022FDF779
:1027E800F3FD5848211D84F8836005F091FFFEF73A
:1027F800DDFD514E514F0146534805F089FF5348BE
:1028080006F188013A4605F083FF5149086818B176
:10281800504A1368002B62D10A204F4E06F03CF84C
:102828004E494F4805F074FF318841B149024D487F
:1028380005F06EFF33884C49580209F0C5F80A20A4
:1028480006F02AF8494A4A48116805F061FF4948E4
:1028580005F046FFEE6848492868AE60FFF788FB38
:1028680000264648FFF714F8012345213046236027
:10287800C4F88C10C4F8A460FEF762FA4AF6AB2CD0
:10288800CAF6AA2CACFB0032D10A01EB4102A0EB3C
:10289800822C0CF58063314606223948C4F8903002
:1028A800C4F88460FDF784FF4FF40071298203B0F7
:1028B800BDE8F040C8E638463A21FDF73DFE064639
:1028C80040B3384609F0D8FA711CC4F88800802251
:1028D800201D0026FDF778FD84F8836087E73A68B5
:1028E800D6F8880003EA020E03409E4594D0254896
:1028F80005F00EFF90E72868B0F57A7FBFF451AF76
:102908000146214805F004FF4FF47A732B6048E72D
:10291800054D37E73946201D8022FDF755FD84F81F
:10292800836064E7242901003C0000203429010069
:1029380028320020000D0020AC320020E80C0020D6
:102948007829010094290100C0290100D429010037
:10295800140D0020100D002024320020B032002079
:10296800242A0100342A0100F03A0100580000200E
:102978004C2A0100642A010095290000E129000081
:10298800040D0020042A0100402901000D4A10B559
:102998000D4CD2F8A400A168431C8B42C2F8A430A5
:1029A80009DC0A4805F09CFE20680949FFF7E0FAAF
:1029B800BDE8104048E6074805F092FEBDE8104023
:1029C800FFF7E6BAAC3200203C000020702A010074
:1029D80095290000BC2801002DE9F046A04C0546C9
:1029E800D4F8900083B0884202D003B0BDE8F086E6
:1029F8002168012903D0D4F88C009042F5D1012B2D
:102A0800F3D92E4636F8020B9F1E4FEA102C4CEADB
:102A1800002080B2052800F0C780062874D003285B
:102A2800E3D1012FE1D96B888D4D180A40EA0323C1
:102A38009BB2C4F88430002B00F0F0804CF6CD40F7
:102A480003F1FF3CCCF6CC40A0FB0CA0C00800EB87
:102A5800800ABCEB4A0F00F0FA8043F2FD3ACCF64C
:102A6800A61AAAFB03C040F28A2A400A0AFB1030C1
:102A7800002800F01681012914BF4FF0000C4FF018
:102A8800010C052914BF61464CF00101002900F032
:102A9800AF8000210220012B2060C4F88C20C4F8EC
:102AA800AC10C4F8B010C4F8A81040F0F1806D4D17
:102AB800C4F8B0300A236C492868AB60FFF758FAAD
:102AC800D4F88410D4F8AC20B5F810C0481E00FB28
:102AD8000C24664B023F1A68B11CA0183A46FDF751
:102AE800D5FE63493C190868844288BF0C60FFF72B
:102AF800ABFD2B8A9F42BFF478AF5E4805F0F0FD2E
:102B08005D4A0320106070E7C4F88C200522082F66
:102B1800226045D90B3B5949304603F00109FDF7BE
:102B2800BFFCDFF840A10146002867D001257419D1
:102B3800092F35D9B9F1000F1AD050492046FDF7B1
:102B4800AFFC0146002861D0013505F1080C0134BD
:102B580067450DD824E049493046FDF7A1FC013509
:102B68000146A8B105F1090E741C0135774517D93E
:102B780042492046FDF794FC661C01460028EAD12C
:102B880004F108000A2209F0D7F9AAF81000E2E7D0
:102B980004F109000A2209F0CFF9AAF81000E1E7C8
:102BA80003B0BDE8F0464FE56B88B11C180A40EA4F
:102BB800032E1FFA8EF2324805F0AAFD6888020A31
:102BC80042EA002C1FFA8CF3591E012908D82D4817
:102BD80005F086FDFEF7BEFB274A0421116004E7D5
:102BE800294805F07DFD03B0BDE8F046FFF7D0B9F0
:102BF800D4F8B0209A423FF4F8AE58E705F10A003D
:102C08000A2209F099F9AAF810008FE706F10900DD
:102C18000A2209F091F9AAF8100095E71148D5F8A9
:102C2800A810D5F8AC30B0F810C001F1010E03EBD4
:102C38000C43190DC5F8AC301448C5F8A8E001924A
:102C480005F066FDD5F884302968019A13E723203A
:102C5800019205F021FED5F884302968019A0AE727
:102C6800AC3200203C0000209529000058000020CC
:102C78009C310020D82A0100D00C0020742A0100C1
:102C8800E02A0100F82A01000C2B01007C2A01002F
:102C98001946084805F03CFD03B0BDE8F046FFF7CB
:102CA80077B90548019205F01BFDD5F884302968ED
:102CB800019AE0E6982A0100942A01002DE9F04ED5
:102CC8005C4FDFF888B13A6886B0541C21463C60F6
:102CD800594805F01DFDDBF80050002140F2EE5286
:102CE8002846FDF765FD4FF4006228465349FEF774
:102CF800D9FE2C1804F11C0900250621012689F8A3
:102D0800021089F80160267789F803502846039154
:102D1800FEF716F844F6D35CC1F2620CACFB001364
:102D2800C3F38F1206AE100A46F8045D40EA022A81
:102D3800A9F808A03146042204F12800FDF7A6FDF1
:102D48003146042204F12C000595FDF79FFD31461C
:102D5800042204F130000595FDF798FD3146042260
:102D680004F13400DFF8E8A00595FDF78FFD03991D
:102D780004F138000A465146FDF788FD04F58476CB
:102D8800802204F188002E49FEF7E6FD731C5A1CC8
:102D980063214FF0FF3653206FF07D0C84F809C192
:102DA80084F808115870967051709AF803009AF8D0
:102DB800022003049AF8051043EA02609AF804C056
:102DC800084340EA0C2179602846FDF7B9FF7B6883
:102DD8003946C3181A0642EA136C03F47F404CEADA
:102DE800002203F47F0C42EA1C2041F8040F04225D
:102DF80004F12000FDF74AFDDBF8003043222046AD
:102E08003146F124C3EB090944230094FFF73EF946
:102E18000C4940F6B830FFF7ABF8A1440A48FEF772
:102E280037FDDBF800004946FEF778FE06B0BDE83E
:102E3800F08E00BF60330020202B010034000020FA
:102E4800283200205D2E0000912E00000C0D00207D
:102E5800D80C0020094810B50368042B07DC41F2A0
:102E680088300749FFF784F8BDE8104026E7054891
:102E780005F036FCBDE81040FFF78AB86033002043
:102E88005D2E0000BC2801002DE9F04E443918BF22
:102E98000121432A0CBF0A4641F0010282B00446D0
:102EA8001E460AB9EB2B02D802B0BDE8F08E0378B3
:102EB8005A1E5FFA82FC591F18BF0121BCF1010F8D
:102EC80094BF002001F0010008B1062BECD1637813
:102ED800012BE9D1A0780628E6D10DF1040A211DBD
:102EE80004225046FDF7D2FCA44B01995A6891423E
:102EF800DAD104F110010422A14804F11405FDF708
:102F0800C5FC504629460422FDF7C0FC019F27B1A5
:102F180029469C480422FDF7B9FC9B4F06223D68D0
:102F28009A48A91804F16C07FDF7B0FC3846FDF77C
:102F38003DFB40BB964D95F9000018B19548944962
:102F480004F0E4FF04F1EC0104225046FDF79EFC76
:102F580048F2632C0199C6F2533C61451AD000200F
:102F68000146FFF705F88C4804F0B0FD20B190F950
:102F780000C0BCF16E0F02D0FFF7F6FB94E7874A5A
:102F88000320106090E7824D394628468022FEF7DC
:102F9800E3FCD0E704F1F005AE19B542DFD294F8AE
:102FA800F030FF2BDBD07E4FDFF81492DFF808B249
:102FB80043B96C1CA642D2D92378FF2BCFD0254623
:102FC800002BF6D06A78941C2C19A642C7D34FF070
:102FD800000AA7F800A028789246431E272BE9D8B4
:102FE80001A151F823F000BF57310000BD2F0000A8
:102FF8002D310000BD2F0000BD2F0000C1300000A2
:10300800BD2F0000BD2F0000BD2F0000BD2F000008
:10301800BD2F00009130000003310000BD2F0000DB
:10302800BD2F0000BD2F0000D5300000BD2F0000CF
:10303800BD2F0000BD2F0000BD2F0000BD2F0000D8
:10304800BD2F0000BD2F0000BD2F0000BD2F0000C8
:10305800BD2F0000BD2F0000BD2F0000BD2F0000B8
:10306800BD2F0000BD2F0000BD2F0000BD2F0000A8
:10307800BD2F0000BD2F0000BD2F0000BD2F000098
:10308800BD2F000039310000464991F900000028A1
:1030980090D11F2A07DD4448444920234FF01F0AD6
:1030A80005F036FB5246A91C3E48FDF7EFFB3D4AAA
:1030B800002302F80A307DE73D480368002B7FF4BF
:1030C80079AFA91C0422FDF7E1FB73E79BF9000027
:1030D80000287FF46FAF3F2A07DD33483549402386
:1030E8004FF03F0A05F014FB5246A91C3248FDF781
:1030F800CDFB00220BF80A205CE7022A2DD0042A17
:103108007FF458AFD5F80200030643EA106E00F4C6
:103118007F414EEA012200F47F0342EA132CA7F80C
:1031280000C047E72548016800297FF443AFC8E796
:1031380099F9001000297FF43DAF1F2A14DCA91C5F
:103148001F48FDF7A3FB002309F80A3032E71D48A2
:103158000268002A7FF42EAFB3E76888010A41EAC3
:10316800002EA7F800E025E70F48174920234FF065
:103178001F0A05F0CDFA5246E1E700BF6033002090
:10318800E80C0020000D0020E00C0020040D0020B9
:103198002832002084220100B0280100D00C002031
:1031A80024320020C4310020342B01006C2B010094
:1031B800A0310020782B0100E4310020140D0020FC
:1031C800A4310020100D0020842B0100064B1A6842
:1031D80032B1D968884203D35218013A904201D9D2
:1031E80000207047184670476833002083885A1EAD
:1031F8008A4205D000EB81021069D368C01A704773
:1032080000EB83030168C2689B688818C01A70477E
:1032180070B490F88C3283B00191002B3DD000211E
:1032280013F0010F01AD90F88DC21C4622D115F89C
:1032380001C002F801C090F88C32012190F88DC2CB
:1032480018E090F88C6290F88DC2631AF31A93FB19
:10325800FCF60CFB163C15F80C600131BCF1030FB1
:1032680094BFB4464FF0000C02F803C090F88C32BB
:1032780090F88DC2661A9B1B93FBFCF60CFB163C60
:1032880015F80C600131BCF1030F94BFB4464FF040
:10329800000CA14202F803C0D3D103B070BC704740
:1032A80070B590F88C5282B000EB8106044605FB9D
:1032B80002F519466A46F668FFF7AAFF94F88C02E9
:1032C800AA19431E072B09D8DFE803F0110D080AD5
:1032D80008080804DDE90001C2E9000102B070BD78
:1032E800009BAB51FAE7BDF80020AA53F6E79DF81A
:1032F8000010A955F2E700BF70B5D0F8B022AA2394
:1033080004460D46FFF7CCFFD4F8B42220462946E0
:103318005523BDE87040C3E770B590F88C5282B071
:1033280000EB8106044605FB02F519466A46F66875
:10333800FFF76EFF94F88C02AA19431E072B2AD8B0
:10334800DFE803F02117291029292904DDE9000104
:103358000CCA42404B4052EA030114BF002001202E
:1033680002B070BDA9590098884214BF00200120FE
:10337800F6E7AB5BBDF800E01FFA83FCE64514BF37
:1033880000200120ECE7AA5D9DF80010914214BFCF
:1033980000200120E4E70020E2E700BF70B590F8C4
:1033A8008C5282B000EB8106044605FB02F51946F3
:1033B8006A46F668FFF72CFF94F88C02AA19431E98
:1033C800072B2FD8DFE803F0251B2E132E2E2E04F3
:1033D800D2E90001DDE9002322EA000223EA010321
:1033E80052EA030114BF0020012002B070BD009909
:1033F800A8590840814214BF00200120F5E7BDF814
:1034080000E0AB5B0EEA030CE64514BF0020012088
:10341800EBE79DF80020A95D11408A4214BF002007
:103428000120E2E70020E0E7F0B490F88C32013B9D
:10343800072B11D8DFE803F01E1810121010100423
:103448000D684E682C0A44EA0664350A17060026F9
:1034580034433D43C1E90045F0BC70470B68180A86
:1034680040EA02620A60F7E70B88180A40EA02227B
:103478000A80F1E70A70EFE7002110B50A46F02349
:103488000446FFF70DFF002120460A46F023BDE859
:10349800104005E7014B1860704700BF540000203A
:1034A8002DE9F04E4FF42F7505FB01F494B008AEEA
:1034B800824600212D2230460494FDF779F90499BB
:1034C800724A4FF000035418022084F88C02A4F8C2
:1034D800AA32A4F8AC32C4F80CA0012794F88C32B4
:1034E80084F88D72E3B959E340F2555500212A4614
:1034F80098232046FFF7D4FE2046002110225123AE
:10350800FFF70AFF002840F0978094F88D3294F86E
:103518008C225900C8B2904284F88D0200F2A8802B
:1035280020465525FFF7A8FF2A4600219823204664
:10353800FFF7B6FE2046002110225123FFF7ECFECC
:103548000028D1D00021112252232046FFF7E4FEA3
:103558000028C9D00021122259232046FFF7DCFE9B
:103568000028C1D094F88C02E768002207EB00130A
:1035780093F800C0511C06F802C013F800E00332AB
:1035880006F801E013F810E003EB400301F1010C29
:103598001B182D2A06F80CE0EAD194F88D22BDF804
:1035A800383040F25551C4F8B012012A40F2AA212D
:1035B800A4F8AE52C4F8B412A4F8A03200F0AE8356
:1035C800022A02D1052B00F0AC839DF823C09DF898
:1035D80024E0099B2E4A4CEA0E21C3F30F23C4F8BA
:1035E800B822A4F89C12A4F8AA329DF83C200692AE
:1035F8007BB1DA1C00FB02FC043300FB03FE1CF861
:1036080007301B02A4F8AC321EF807201343A4F8B5
:10361800AC32032946D03FD8012943D0022900F013
:1036280009821C4805F074F8002120460A46F02358
:10363800FFF736FE002025E0002111225223204604
:10364800FFF76AFE00283FF460AF204600211222EF
:103658005923FFF761FE002884D194F88D3294F83D
:103668008C225900C8B2904284F88D027FF658AF78
:103678005000C2B2082A84F88C227FF62FAF034B81
:103688000499585814B0BDE8F08E00BF6833002084
:10369800942B0100A42B0100042900F0CB81B1F583
:1036A800007FBED14FF0F00E0021A4F89EE20A463A
:1036B800F0232046FFF7F4FD00210A469023204618
:1036C800FFF7EEFD4FF47A7008F024FCE56894F8F3
:1036D8008C7228780021A4F8A4027E5D0A46F023A3
:1036E8002046A4F8A662FFF7DBFD982300212046B8
:1036F800B4F8AE22FFF7D4FDB4F8A4321F2B00F0C3
:10370800ED81202B00F05482012B00F0268194F8E3
:103718008CC294F88D32B4F8A012BCFBF3F25FFAB5
:1037280082FC0229CDF81CC000F0318206980028DE
:1037380000F00083002556460295A246029F0DF12F
:10374800500EB91D0EEB810212F8284C52F82C0CC1
:10375800230643EA1027390C1FFA87FB0CBF4FF0EA
:10376800800C4FEA012C7F2D0BF1010B00F24581F3
:10377800DDF81CE0A81C0EFB0CFC05F50274BAF879
:103788009C320AEB80075444C5F17F0E3A1D201D78
:103798000EF00101032B7E600591664401920390AF
:1037A80000F02F81B3F5007F00F02B81012B00F092
:1037B80028814FF0000020710127ED19BB4567DD16
:1037C8000198039A041D7F2D02EB070900F2158169
:1037D8000599002945D0BAF89C324660032B664407
:1037E80000F01B81B3F5007F00F01781012B00F07A
:1037F8001481039B4FF0000E83F801E00137013577
:10380800BB4528DC44E0B3F5007F30D0012B1CBF5A
:10381800002289F800202AD001370135BB450195DF
:1038280036DDBAF89C3266600434032B09F10109CD
:10383800664400F0D580B3F5007F00F0D180012BFD
:1038480000F0CE804FF0000589F80050019A01374A
:10385800551CBB451CDD04347F2D09F1010900F21C
:10386800CC80BAF89C322660032B6644CBD129461B
:10387800022201235046CDF800C0FFF78FFD013723
:1038880089F800000135BB45DDF800C00195C8DCAA
:10389800029F069A7B1C9A42029340F3DA81029CAB
:1038A800052C7FF44BAF06995446BE48042204F019
:1038B8002FFFB4F8A012ADB29DF830E09DF82FC0EC
:1038C800012303FA0EF703FA0CFC9DF831609DF80A
:1038D800332013FA06F69DF834000CFA02FC17FAA6
:1038E80000F09DF837E0BDF83A7003FA0EFE9DF837
:1038F8003520BB4096400CF5787700F5787044F693
:10390800D352C1F2620207F1070C0730A2FB0C7C0C
:10391800A2FB0070079A80090EFB02F74FEA9C127F
:10392800DFF888E2DDF810C0C4F8980202294FF0E9
:103938008070A5804EF80C70A4F88E32C4F890629E
:10394800C4F89422A06000F01781002120460A469E
:10395800B4F89E32FFF7A4FC91E69DF83C100129CB
:103968007FF6D5AEB4F8AC0243F23016B04200F29E
:103978009881B4F8A67217F0800F3FF4C8AE0139E9
:1039880000228B1D14AD05EB8303971D05EB870003
:1039980013F828CC50F82C7C53F82C6C4FEA0C6E9A
:1039A8004EEA162C07F0FF0545EA0C264FEA1C6E76
:1039B80010F8285C40F82C6C00F828EC4FEA056CED
:1039C80013F82CEC4CEA172601320139300E4EEA76
:1039D80006258A4203F8280C43F82C5CD1D396E6D6
:1039E8005046019902220123CDF800C0FFF7D6FC0A
:1039F80089F80000DDF800C028E76B4804F088FE6D
:103A080046E75046294602220123CDF800C0FFF7B9
:103A1800C5FC2071DDF800C0CEE6022250462946DA
:103A28000123CDF800C0FFF7B9FC039A5070DDF808
:103A380000C0E3E64FF0F00C00210A46F023A4F89A
:103A48009EC22046FFF72CFC00212046FFF754FCBD
:103A58000021D4F8B02290232046FFF721FC4FF430
:103A68007A7008F057FAE06802787F2A15D194F83E
:103A78008CE2002340F2FF7C03F580739BB20EFBBF
:103A880003F2125C63458CBF002101217F2A14BF19
:103A9800002101F001010029EED194F88D32A4F83B
:103AA800A422012B00F0DA80022B05D194F88C3285
:103AB80033F800C0A4F8A6C200210A46F023204625
:103AC800FFF7EEFB982300212046B4F8AE22FFF75B
:103AD800E7FBB4F8A4321F2B7FF413AEB4F8AA3274
:103AE800002B40F0D28094F88CC2B4F8A6E2BEF164
:103AF800D60F14BF00210121BEF1D20F14BF084612
:103B080041F0010008B183F00103002B3FF401AE3E
:103B18009DF83C30581E3FF4FCAD0021831D14AFC6
:103B280007EB83038D1D07EB850213F828EC52F889
:103B38002C5C53F82C6C4FEA0E6747EA162E05F0FA
:103B4800FF0646EA0E2712F8286C4FEA1E6E02F8A6
:103B580028EC42F82C7C13F82C7C320642EA152219
:103B680001310138150E47EA0226814203F8285C24
:103B780043F82C6CD2D3CCE594F88D1201297FF44C
:103B8800E4AE94F88C22530884F88C32DDE6012BDD
:103B980004BF4FEA6C0CCDF81CC0C7E584F88C3222
:103BA8009CE400BFC42B0100EC2B0100683300200B
:103BB8009DF83C1001297FF6AAADB4F8ACC243F2D7
:103BC800301084453FF6A3ADB4F8A6E242F2CA2706
:103BD800BE4514BF0022012242F25625AE4514BF4D
:103BE800164642F00106002E3FF491AD013900223D
:103BF8008B1D14A800EB8303951D0DF1500E0EEBE1
:103C0800850013F828CC50F82C5C53F82C6C4FEA3C
:103C18000C6747EA162E05F0FF0646EA0E274FEA1C
:103C28001E6C10F828EC40F82C7C00F828CC4FEAE1
:103C38000E6613F82CCC46EA152701320139380EE6
:103C48004CEA07268A4203F8280C43F82C6CCFD399
:103C58005DE55446B4F8A012ADB22DE694F88C3266
:103C68001A5C7E2AA4F8A6227FF426AF703A02FBDB
:103C780003FE1EF8002019011602A4F8A862CD1A46
:103C88002F5C3E43A4F8A86216E794F88CC29F1DE7
:103C98000CFB07F2E568565D06F0010181F00103AF
:103CA80023E7B4F8AA7294F88CC20F370CFB07F21A
:103CB800E668905D03287FF42CAD013900228B1D46
:103CC80014A800EB8303951D14AF07EB850013F8C8
:103CD80028EC50F82C5C53F82C6C4FEA0E6747EA36
:103CE800162E05F0FF0646EA0E2710F8286C4FEA54
:103CF8001E6E40F82C7C00F828EC370613F82CECE4
:103D080047EA152601320139300E4EEA06258A4265
:103D180003F8280C43F82C5CD1D3FAE4022B7FF487
:103D280054AC40F6AA2340F25552C4F8B032C4F855
:103D3800B4224AE40546BFE538B5124C4FF6FF7584
:103D48000021A5604FF0E840FFF7AAFBA3682468AC
:103D5800AB420FD04FF0E840FFF738FA40F6FF7259
:103D68000346C7F2004201204FF0E84105F056FD36
:103D7800204638BD044801212246230504F0C8FC2A
:103D8800E8E700BF683300200C2C01002DE9F04E55
:103D9800044684B000200F4601931646FCF7D0FF76
:103DA800B4F89C3207F10209032B054604EB890994
:103DB8000DF1080B3DD075D8012B3AD0022B0BD052
:103DC8000025032B64D0B3F5007F61D0012B5FD0B1
:103DD800284604B0BDE8F08E40215A462046D9F85E
:103DE80004A0FFF715FA94F88C22511E07290BD866
:103DF800DFE801F043390A2F0A0A0A0DDAF804103D
:103E0800DAF80420914208D1B4F89C32D8E7DAF8FD
:103E18000000DAF800309842F0D02846FCF790FF0E
:103E280086424FD3012008F075F8B4F89C32032B72
:103E3800C1D12046394600228023FFF7AFFAD0F1DE
:103E4800010038BF00200028E7D1B4F89C320546AD
:103E5800B7E7DAF80010DAF80020881A18BF01204E
:103E68000028DAD1F1E7BAF80030BAF80000C01A31
:103E780018BF01200028D0D1E7E79AF800C09AF8C7
:103E880000E0BCEB0E0018BF01200028C5D1DCE71C
:103E9800002D3AD1204639460022B4F89E32FFF769
:103EA800FFF995E7042B97D0B3F5007F88D120461A
:103EB800394600228023FFF771FAD0F1010038BF9C
:103EC8000020C0E704EB8700C26894F88C3292F8AF
:103ED80000E012F803C012F8131003EB430541EA9F
:103EE8000E40515D40EA0C6343EA012331480199D1
:103EF80004F00EFCB4F89E32204639460022FFF743
:103F0800CFF90125B4F89C325BE7204639460022F8
:103F18008023FFF701FA054640B1204639460022C2
:103F2800B4F89E320125FFF7BBF951E704EB87008F
:103F3800C2680199204804F0EBFB2A46204639461E
:103F48003023FFF72BFA0246E8B9204639462023EA
:103F5800FFF724FA024600B3184804F0C1FB022513
:103F68002046394600220223FFF718FA80B9204676
:103F7800394600220823FFF711FA00288AD0104892
:103F880004F0AEFB86E70F4804F0AAFB0825E7E734
:103F98000D4804F0A5FB0425E9E72046394610231F
:103FA800FFF7FCF908B90825DAE7084804F098FB98
:103FB8000825D5E7442C0100702C0100AC2C010029
:103FC800E02C0100902C0100D02C0100C02C010035
:103FD8002DE9F04E90F88C720646781E0D4617466D
:103FE8009A46072805D8DFE800F0443A0433040469
:103FF80004070220BDE8F08ED5E900012AEA010392
:1040080022EA000252EA030114BF00230123002B15
:10401800EFD0FDF775F8B6F89C328346032B36D0FF
:104028002FD8012B33D0022B00F0B2804FF00009BB
:104038004C4696F88C22531E072B3BD8DFE813F02A
:10404800A2009C003A0097003A003A003A00360075
:10405800296811408A4214BF00230123D7E72B881F
:104068001FFA82FC0CEA0300844514BF00230123D5
:10407800CDE72A78FBB21A40934214BF00230123EC
:10408800C5E7042B00F08480B3F5007FCED1002172
:104098000A4650233046FFF703F900218946304687
:1040A8000A464023FFF7FCF84C46C2E73A46534617
:1040B800C5E90023BBF1000F56D1B9F1000F4BD170
:1040C8006148D0F8BC42A11C06EB810253689D42AE
:1040D80027D9B6F804C00CF1FF3C644521D204325C
:1040E8005368E14301EB0C0E01349D420EF00101CF
:1040F80017D90432644514D269B1536801349D421A
:104108000FD90432644506D30BE04B6801349D4255
:1041180007D9644505D25368111D01340A1D9D4213
:10412800F3D8221E18BF01229D422CBF002302F0A3
:1041380001037BB106EB84030C33013C53F8041DE7
:104148000CBF002201228D422CBF002202F0010286
:10415800002AF2D1C0F8BC42D6F894223B4B304634
:104168002146BDE8F04E11E6FCF7C8FFA5E72F6031
:10417800BBF1000FA1D0F7E7BFB22F80BBF1000F52
:104188009BD0F1E7FFB22F70BBF1000F95D0EBE7A2
:104198002D4BD3F8BC42A01C06EB80014A6895421F
:1041A80027D9B6F8049009F1FF3C644521D20431BF
:1041B8004A68E04300EB0C0E013495420EF0010012
:1041C80017D90431644514D268B14A68013495425C
:1041D8000FD90431644506D30BE042680134954297
:1041E80007D9644505D24A68081D0134011D954266
:1041F800F3D895422CBF00220122002C0CBF0022CC
:1042080002F001027AB106EB84020C32013C52F84A
:10421800040D0CBF0021012185422CBF002101F0B3
:1042280001010029F2D130462146C3F8BC42FFF70C
:1042380063F830462146D6F8B022A023FFF730F8BD
:104248004FF00109F5E600BF68330020F02C0100AB
:104258002DE9F04E90F88C7284B0C7F1000922EA7B
:10426800090BBBF1000F04460D469A4602EA0909FC
:104278007AD04FF0000602962CDD0BF1FF3602AF24
:1042880006F0010399F80020394601260193FFF74B
:10429800CBF8B345019B1ADD4BB109F10106327821
:1042A800204639460226FFF7BFF8B3450FDD16F85A
:1042B8000920204601363946FFF7B6F816F80920D6
:1042C800204601363946FFF7AFF8B345EFDC94F8DE
:1042D8008C725E46BAF1000018BF0120BE42ACBF26
:1042E800002000F00100B8B10DF1080B5946204636
:1042F80015F8012BFFF798F8BAF1010A94F88C72B7
:1043080006F101060CBF00210121B742D4BF0021EC
:1043180001F001010029E9D1BAF1000F18D1BE421C
:1043280016DA0DF1080B19F806202046594609EB54
:104338000607FFF779F8013605E03A78204659462E
:10434800FFF772F8013694F88C2201379642F4DBB5
:10435800DDE9022320464946FFF73AFE03460028D6
:104368005CD194F88C72B144BA4521D34FF0000B5C
:1043780002AECDF808B05FB15F462046314615F869
:10438800012BFFF751F894F88CC20137BC45F4DCD7
:10439800DDE9022320464946FFF71AFE03460028B6
:1043A8003CD194F88C72C7EB0A0A5745B944E0D956
:1043B800BAF1000F36D00026BB1B18BF01230296A6
:1043C800002B31D00DF1080BAA5D20465946FFF7A6
:1043D8002BF894F88C720136B742D4BF002301231E
:1043E800B2450CBF002303F00103002BECD1BE4201
:1043F8000DDA06EB090502AF204615F8012B394600
:10440800FFF712F894F88C020136B042F4DCDDE9CB
:10441800022320464946FFF7DBFD0346184604B051
:10442800BDE8F08E5346F9E71E46E0E783682DE9BC
:10443800F047B3F1807F044604D05048BDE8F04708
:1044480004F04EB990F88C2290F88D02D200C30087
:10445800D4F8B8124A4804F05BF92168B1F5801F16
:104468005CD3090D4748A28804F052F9464804F085
:104478004FF9B4F89C1203295CD064D801296FD095
:10448800022971D0414804F043F9B4F8A412404815
:10449800B4F8A62204F03CF9B4F8A6127E2967D035
:1044A800D4F894223B48D4F8901204F031F9B4F8C7
:1044B8008E22012A04D93848D4F8981204F028F931
:1044C800364804F00DF9A388002B37D046F2676907
:1044D800DFF8F0A02C4FC6F266692646002510E0EA
:1044E800631993F80CC2F168BCF1000F14BF52466F
:1044F8003A462B4804F00CF9A18801350436A94244
:104508001CDD89FB0532E817C0EB620E0EEB8E0C42
:104518006545E5D1234804F0FBF8E1E7890A22481C
:10452800A28804F0F5F8184804F0F2F8B4F89C12E0
:104538000329A2D11D4804F0EBF8A6E70A20BDE83C
:10454800F04704F0A9B9042906D0B1F5007F99D144
:10455800174804F0DDF898E7164804F0D9F894E70E
:10456800154804F0D5F890E7144804F0D1F88CE722
:104578001348B4F8A81204F0CBF891E7F82C01001E
:10458800182D01004C2D01006C2D0100C42D0100D7
:10459800D42D0100182E01004C2E0100842E01009C
:1045A800A42E0100044101002C2D0100842D0100DE
:1045B800702D0100B42D0100942D0100A42D0100DF
:1045C800102E0100A02E010083682DE9F04EB3F1F2
:1045D800807F04460D46174640F05581C90F954225
:1045E800C8BF41F00101002940F05581954224D807
:1045F80005F50276831913F8042F781B00F00100E3
:1046080002B101216A1C0133BA4213D828B11878C3
:1046180058B901320133BA420CD81878013200B1C6
:104628000131587801330028F3D0013201310133C8
:10463800BA42F2D9002940F03681DFF818A3DAF837
:104648000010002940F03881BD4294BF05F502767C
:104658004FF0000900F2A880A61916F8043FC5EB30
:10466800070B0BF0010B4FF0000963BBB4F89C3249
:10467800032B07D040F24081042B00F04381B3F5AF
:10468800007F11D12046294600225023FEF708FE5C
:104698002046294600222023FEF702FE204629460E
:1046A8000022D023FEF7FCFD20462946D4F89022AC
:1046B800A34BFFF76BFB002840F0FB80DAF80020E3
:1046C800002A40F0398101350136BD426CD8BBF172
:1046D800000F31D0307858BBB4F89C32032B07D088
:1046E80040F2EE80042B00F0F180B3F5007F11D189
:1046F8002046294600225023FEF7D2FD20462946AF
:1047080000222023FEF7CCFD204629460022D02394
:10471800FEF7C6FD20462946D4F89022884BFFF7BD
:1047280035FB002849D1DAF80010002940F0008153
:1047380001350136BD4237D832789AB9B4F89C327F
:10474800032B4AD044D8012B47D0022B72D02046E5
:104758002946D4F890227A4BFFF718FB00282FD06F
:104768004FF001097178013501360029E0D1B4F81C
:104778009C32032B74D043D9042B45D0B3F5007F6A
:104788006ED020462946D4F890226D4BFFF7FEFAEA
:1047980098B9DAF80030002BCAD02E20013504F081
:1047A8007BF80136BD42C7D9DAF8003013B1654845
:1047B80003F096FF4846BDE8F08E4FF00109B7E7D1
:1047C800DAF800000028CDD02E2004F065F8C9E7FB
:1047D800042B2FD0B3F5007FB9D1204629460022FB
:1047E8005023FEF75DFD2046294600222023FEF7D0
:1047F80057FD204629460022D023FEF751FDA6E7A3
:10480800012B2DD0022BBCD120462946FEF774FD82
:10481800D4F8B022802320462946FEF741FD2046E1
:104828002946FEF769FD2046294600223023FEF777
:1048380037FDA6E720462946FEF75EFDD4F8B022EC
:10484800802320462946FEF72BFD20462946FEF701
:1048580053FD2046294600223023FEF721FD76E746
:104868002046294600225023FEF71AFD20462946F5
:1048780000222023FEF714FD204629460022D023DB
:10488800FEF70EFD7DE730484FF0010903F028FFE1
:104898004846BDE8F08E2D484FF0010903F020FF8F
:1048A8004846BDE8F08E2A4803F032FFDFF8A4A09E
:1048B800D2E64FF0010906E70A2003F0EDFFC3E650
:1048C800012B3FF415AF022B7FF424AF2046294675
:1048D800FEF712FDD4F8B022802320462946FEF7C1
:1048E800DFFC20462946FEF707FD20462946002220
:1048F8003023FEF7D5FC0DE7012B3FF4C3AE022BA6
:104908007FF4D2AE20462946FEF7F6FCD4F8B02252
:10491800802320462946FEF7C3FC20462946FEF799
:10492800EBFC2046294600223023FEF7B9FCBBE603
:104938002E3003F0B1FFFBE62E3003F0ADFFC2E6E8
:10494800302F0100382F0100B42E0100E02E0100A5
:10495800F82E01005400002070B5084E3368002B73
:104968000ADD074C0025236920460135303403B1A0
:1049780098473068A842F6DC70BD00BF540B002091
:10498800240B00202DE9F044044646690D461746DD
:104998009A46B047E369204601219847002600213E
:1049A800636A20469847A26A20469047636A0121B5
:1049B80020469847A16A204688470021626A204617
:1049C8009047A36A2046984701360121626A20462B
:1049D80090470136A16A20468847202EDFD1002162
:1049E800626A204690470021E36920469847A26AF8
:1049F80020469047636A012120469847A16A2046CD
:104A080088470021626A204690470121E3692046D1
:104A18009847A26A20469047636A01212046984732
:104A2800A16A204688470021626A204690472946A5
:104A3800E36920469847A26A20469047636A0121A5
:104A480020469847A16A20468847626A0021204686
:104A58009047D5F1010138BF00212046E569A847F4
:104A6800A36A204698470121626A20469047A16AB6
:104A7800204688470021656A2046A84717F010019C
:104A8800E369204600F0DE8001219847A16A2046AC
:104A980088470121626A20469047A56A2046A847B0
:104AA8007800C5B2636A00212046984715F01001C6
:104AB800E369204600F0D48001219847A16A204686
:104AC80088470121636A20469847A26A2046904792
:104AD8006800C5B2636A00212046984715F01001A6
:104AE800E369204600F0BA8001219847A16A204670
:104AF80088470121626A204690476D00A36A2046D4
:104B08009847EDB20021626A2046904715F01001DF
:104B1800E369204600F0A08001219847A16A204659
:104B280088470121636A20469847A26A2046904731
:104B3800636A002120469847680010F0100118BFEA
:104B48000121E5692046A847A16A20468847012136
:104B5800626A20469047A36A204698470021656A02
:104B68002046A8471AF01001E369204672D00121B7
:104B78009847A16A204688470121636A20469847DA
:104B8800A56A2046A8474FEA4A0C5FFA8CF500212F
:104B9800626A2046904715F01001E369204657D015
:104BA80001219847A16A204688470121626A204668
:104BB8009047A36A204698476800C5B20021626AF8
:104BC8002046904715F01001E36920463ED00121A8
:104BD8009847A16A204688470121636A204698477A
:104BE8006D00A26A20469047EDB2636A0021204614
:104BF800984715F01001E369204625D00121984710
:104C0800A36A20469847626A012120469047A16A14
:104C1800204688476D00636A20460021984715F0B2
:104C2800100118BF0121E26920469047A16A204679
:104C38008847636A2046012198472046A26A904720
:104C4800BDE8F084984721E79847D9E79847C0E737
:104C58009847A7E798478CE798475FE7984745E75D
:104C680098472BE72DE9F04E5C4E8246306882B0BB
:104C78000028009101921F4640F3AD80DFF860B133
:104C88004FF0000903E03368994580F2A48009EBEE
:104C980049040BEB041420465146FBF701FC09F1CB
:104CA800010905460028EED1002C00F09480009AF6
:104CB800019B20462946FFF765FE636A2946204680
:104CC80098470121E26920469047A36A2046984701
:104CD800626A012120469047A16A20468847636A94
:104CE8002946204698472946E26920469047A36A04
:104CF800204698470121626A20469047A16A2046CB
:104D080088473FE000219847A26A20469047012142
:104D1800636A204698470135A16A20468847102DC6
:104D280044D07F000021BFB2636A2046984717F439
:104D3800004F36D1E269204600219047A36A2046F9
:104D480098470121626A20469047A16A2046884711
:104D5800780087B2636A00212046984717F4004F0D
:104D6800E36920461AD100219847A36A204698474C
:104D78000121626A20469047A16A204688477F0041
:104D88000235BFB20021626A2046904717F4004FEF
:104D9800E3692046B6D001219847B5E70121984735
:104DA800E3E7E369204601219847C7E7A169204660
:104DB80088470021626A20469047A36A20469847A0
:104DC8000121626A204690472046A16A8847002050
:104DD80002B0BDE8F08E4FF0FF30F9E7540B002029
:104DE800240B00202DE9F04E074D0646286884B0B4
:104DF8000028009101929A4640F3FF81DFF80CB039
:104E08004FF0000908E000BF540B0020240B0020DD
:104E18002B68994580F2F18109EB49040BEB0414E6
:104E280020463146FBF73CFB09F1010907460028FB
:104E3800EED1002C00F0E181BAF1000F00F0E08122
:104E4800019B009A20460121FFF79CFD626A3946C2
:104E580020469047A36920469847A66A2046B0474F
:104E68000121656A2046A84703AEA16A2046884703
:104E7800226A204631469047039D002D40F09681D6
:104E88002946676A2046B847A36A20469847626A57
:104E9800012120469047A16A204688473146276A63
:104EA8002046B847BDF80CC02946636A20460CF076
:104EB80001079847A26A20469047636A0121204665
:104EC8009847A16A204688474FEA47093146276A2A
:104ED8002046B8470398294600F0010C626A1FFA79
:104EE80089F9204649EA0C079047A36A2046984763
:104EF800626A012120469047A16A204688473146C8
:104F0800236A204698470398294600F001027F004B
:104F1800636A204617439847A36A20469847626AFF
:104F2800012120469047A16A204688473146236AD6
:104F3800204698470398294600F001027F00636ADB
:104F4800204617439847A36A20469847626A01217A
:104F580020469047A16A204688473146236A204662
:104F680098470398294600F001027F00636A2046AB
:104F780017439847A36A20469847626A012120464A
:104F88009047A16A204688473146236A20469847B9
:104F98000398294600F001027F00636A2046174300
:104FA8009847A36A20469847626A0121204690479D
:104FB800A16A204688473146236A204698470398C5
:104FC800294600F001027F00636A2046174398478C
:104FD800A36A20469847626A012120469047A16A41
:104FE800204688473146236A204698470398294631
:104FF80000F001027F00636A204617439847A36ABE
:1050080020469847626A012120469047A16A2046B7
:1050180088473146236A2046984703987F0000F066
:1050280001022946636A204617439847A36A204627
:105038009847626A012120469047A16A204688471E
:105048003146236A204698470398294600F0010212
:105058007F00636A204617439847A36A204698470B
:10506800626A012120469047A16A20468847314656
:10507800236A204698470398294600F001027F00DA
:10508800636A204617439847A36A20469847626A8E
:10509800012120469047A16A204688473146236A65
:1050A800204698470398294600F001027F00636A6A
:1050B800204617439847A36A20469847626A012109
:1050C80020469047A16A204688473146236A2046F1
:1050D80098470398294600F00102636A7F0020463A
:1050E80017439847A36A20469847626A01212046D9
:1050F8009047A16A204688473146236A2046984748
:105108000398294600F001027F00636A204617438E
:105118009847A36A20469847626A0121204690472B
:10512800A16A204688473146236A20469847039853
:10513800294600F001027F00636A2046174398471A
:10514800A36A20469847626A012120469047A16ACF
:105158002046884731462046266AB04703982946A4
:1051680000F0010C7F00636A204647EA0C06984766
:10517800A36A20469847626A012120469047A16A9F
:10518800204688472946636A20469847A26A2046EF
:1051980090470121636A204698472046A16A8847BC
:1051A800AAF80060284604B0BDE8F08E0021626AC3
:1051B80020469047A36A20469847626A0121204604
:1051C8009047A16A204688470021636A204698478D
:1051D800A26A2046904701370121636A2046984712
:1051E8000137A16A20468847202FDFD14FF0FF3CC6
:1051F800AAF800C04FF0FF30D5E74FF0FF30D2E7F4
:10520800024803F06DFA4FF0FF30CCE7402F010061
:1052180008B50120FBF758FE43469A68996800EBE9
:10522800C2000B01B0FBF3F008BD00BF064B01380C
:1052380010B553F820402046FFF7EAFF0146204604
:10524800BDE8104000F078B8542F01000120EDE7C8
:10525800024B013853F8200000F098B8542F010091
:105268000120F5E708B5044B013853F8200000F099
:1052780085F840B208BD00BF542F01000120F1E7B6
:10528800034A0139034652F82100194600F06EB866
:10529800542F01000121F3E70A2870B5044609D00C
:1052A800094B013953F8215028462146BDE8704082
:1052B80000F05CB8044A481E52F820500D212846D8
:1052C80000F054F8F0E700BF542F01000121E3E794
:1052D80038B503780D4643B1044658B22946FFF75E
:1052E800DBFF14F8013F002BF7D138BD0121EFE7B0
:1052F80008B54FF08040FFF78BFF01464FF0804024
:1053080000F002F8002008BD00226FF07C0C02714A
:10531800032380F80CC010B40270C1F30724027193
:10532800C9B2072203730374027280F80CC00170BB
:105338000471037310BC7047002210B46FF07C0432
:105348000271032304730270027107220373C1F30D
:10535800072C0374C9B202726FF07F0202730170E6
:1053680080F804C0037310BC704700BF037D13F0BE
:10537800200FFBD0C9B20170704700BF037D13F046
:10538800010FFBD0007840B2704700BF007D00F0ED
:105398000100704730B543461C6885B0E2681C4878
:1053A8001C4903F0B5F9A26819481B4903F0B0F984
:1053B80022691748194903F0ABF900221448184923
:1053C80003F0A6F962691248164903F0A1F901AD84
:1053D800A2690F48144903F09BF914492846FAF7C3
:1053E800EBFF284602F072FB114A2946002818BF35
:1053F8000246104803F08CF9211D0F4803F088F984
:1054080021680E4803F084F9002005B030BD00BFC4
:10541800642F0100742F0100802F0100882F0100E4
:10542800942F0100A02F0100AC2F0100D825010006
:10543800B42F0100C02F0100CC2F0100E02F010084
:1054480008B5034608461146984708BD012A70B5B5
:10545800144619DD5868102200211D1D06F06CFD48
:10546800064601460B4803F053F9611E2A463046AA
:10547800FFF7E6FF04460146003C18BF0124064832
:1054880003F046F9204670BD012402F059FE20467B
:1054980070BD00BF1C30010044300100704700BFE0
:1054A800021E18BF012280280CBF002202F0010250
:1054B80010B552B91C6E0648214603F029F90F2091
:1054C80004F04AFF43461868A047012010BD00BFFA
:1054D800043101002DE9F04EB0F1000C18BF4FF077
:1054E800010C84B080280CBF00200CF001000C4691
:1054F8001546009300287ED193F82230009A042B99
:10550800166800F0848000260196022C77DDA868D2
:10551800FBF74CF80326A4F1030A471CB4420AF02F
:10552800010A1ADDBAF1000F07D0E868FBF73EF868
:105538000426C1194F1CB4420FDD55F82600FBF7AD
:1055480035F80136C31955F826005F1CFBF72EF80D
:105558000136C7190137B442EFDC384603F0FAFACE
:1055680014F0010F4FF002094FF0000A4FF0200B22
:10557800064620D1A968FAF71FFF4FF00309A8686B
:10558800FBF714F84C4527DD06F800B000F1010AD6
:10559800043510E006F80AB0B968FAF70DFFB868E4
:1055A800FBF704F800EB050C09F1010906F80CB04B
:1055B8000CF1010A3D1DA96806EB0A00FAF7FCFE8A
:1055C800A868FAF7F3FF82442F1D09F101090AF1CF
:1055D800010570194C45DDDC0098046E124821461F
:1055E80003F096F80F2004F0B7FE424610680199C0
:1055F80033460E4AA047012004B0BDE8F08E0C489F
:1056080002F064FA094E002818BF0646E4E70121B3
:10561800304603AA02AB04F069FB029900293FF463
:1056280072AF019671E700BF4C310100F03A0100FA
:105638004031010084B02DE9F04E82B00DF1280C04
:105648008CE80F009DF83D109DF83CB00D9B064678
:1056580008460193109FDDF844A00E9C0B9DDDF8D1
:10566800309004F0BFFABBF1000F21D1B4420146DB
:105678004BD0304803F04CF84C4506D049462046FC
:10568800019A4FF4803304F0C3FB019B2A48E218C7
:105698003A6003F025F8284803F022F8BAF1000F21
:1056A80029D0072004F058FEAC4226D3002008E099
:1056B800BBF1010F0AD02148594603F029F86FF0D1
:1056C800020002B0BDE8F04E04B0704701461C4825
:1056D80003F01EF820464A464FF4000101AB06F0DD
:1056E80079FBB0B9019960183860134802F0F8FFE7
:1056F800BAF1000FD5D1AC42D8D23A68B24288BFCD
:105708006FF00100DDD80020DBE70E4803F000F859
:10571800BBE70D4802F0E4FFBAF1000F02D14FF0E9
:10572800FF30CEE76FF0050004F016FE4FF0FF30B3
:10573800C7E700BFA8310100BC31010030320100C9
:10574800C031010098310100DC3101002DE9F04E33
:10575800A54C002182B0174682468C2220469946E5
:10576800FBF726F8A14804F067FB012FC4F8840072
:1057780040F3CB80D9F804000021102206F0DCFBAE
:105788000546012004F0E8FD284604F05BFA4FF0D6
:10579800000B0646C4F854B0C4F850B0054604F0EF
:1057A8008FFA012818D0DAF80010914802F0B0FFFB
:1057B8006FF06B0004F0D0FD5D46626D8A4E002AE2
:1057C80054D0284604F07CFA0128834653D08948EF
:1057D80002F086FF012095E08748314602F098FFE5
:1057E800336841F65612190641EA136103F47F4003
:1057F80041EA002C03F47F0B4CEA1B20C2F205722D
:1058080079499042D1F884B040F0AB80022004F08E
:10581800A3FD304604F02CFB002800F0D3800320C1
:1058280004F09AFD304604F06BFBBBF1000F0BD07F
:10583800724802F055FF304604F03CFB002800F0A7
:10584800CA806F4802F04CFF042004F085FD717F88
:1058580002295DD06B4802F05BFF6FF0030004F093
:105868007BFD0025626D604E002AAAD1664802F0D1
:1058780037FF012046E0A97F86F85D10E87F86F8AB
:105888005C00287F86F85E00EA682B694FEA026AA6
:105898004AEA126E02F47F4C4EEA0C2A02F47F02A6
:1058A8004FEA036C4CEA136E4AEA122203F47F4A69
:1058B8004EEA0A2C03F47F0E4CEA1E234032B365ED
:1058C800736C5219F264002B77D0B369022914BFA4
:1058D800002201224FEA036A4AEA136E03F47F4A60
:1058E8004EEA0A2C03F47F0E4CEA1E23042914BF47
:1058F800114642F001013366F9B90120C4F8880065
:10590800A564002002B0BDE8F08E404B1D6838E762
:10591800052004F021FDB37F022B3DD0042B29D0B4
:10592800012B39D0DAF80010394802F0F1FE6FF097
:10593800040004F011FD00253FE70528DDD13846B5
:10594800324606F1640749466836022300970196F5
:1059580004F018FC0028D0D02E4802F0C1FE5846AA
:10596800D0E72D4802F0BCFE4FF0FF3004F0F4FC05
:10597800002577E7294A30460021131D04F0B6F9BF
:10598800314640222648FAF7CFFF26600620012636
:10599800666404F0E1FC10E7F36806F140021906BA
:1059A80041EA136103F47F4041EA002C03F47F0EBF
:1059B8004CEA1E2322656365E2E71A4802F090FE6E
:1059C80058469FE7184802F08BFE6FF0010004F07C
:1059D800C3FC002546E7154802F09AFE6FF0020066
:1059E80004F0BAFC00253DE72836002054320100B7
:1059F8002C330100703301005C320100BC3201001D
:105A0800BC310100E8320100503301005800002089
:105A180008330100B83301009032010078360020C5
:105A28002C36002094330100A4320100D832010042
:105A38002DE9F044044686B058680D46174640499B
:105A480006221E4602F088FB331D002832D0D0F80B
:105A58000CA0BAF1010F6BD03A4DD5F888309A45B1
:105A680025DD4AEA030095F85E20374BBAF1200F8E
:105A7800C5F8880053F8224024D007DCBAF1020F99
:105A88002CD0BAF1100F47D0002417E0BAF1400F1C
:105A980036D0BAF1800FF7D1FBF732FBFFF7FEFCE7
:105AA8005046394632462B46A047002406E0274890
:105AB80002F02EFE204602F043FB0124204606B0E9
:105AC800BDE8F0845046394632462B46A047044686
:105AD8000028F3D01E4802F01BFEEFE705F1480C42
:105AE800EE46583595E803008EE8030005AC9CE8BF
:105AF8000F00029400240394FFF79CFD0446DDE7A1
:105B08005046394632462B46A04704460028D5D091
:105B1800104802F0FDFDD1E75046394632462B4683
:105B2800A04704460028C9D00B4802F0F1FDC5E79C
:105B3800204629467A1EFFF709FE0446BEE700BF45
:105B48005C00002028360020B8300100E033010056
:105B580030340100503401000C3401002DE9F04EBE
:105B6800144690B00022012C0F9207468A461D4623
:105B780012DD58680EA9102206F0DEF90E9B93F983
:105B88000030181E18BF01203A2B0CBF002000F06F
:105B9800010008B1232B67D13846514622462B46CF
:105BA800FFF7D4FD18B1012010B0BDE8F08EFBF767
:105BB800A7FADFF864916A4609F15803834693E827
:105BC800030082E8030009F1480C0FAE9CE80F00BF
:105BD800029601260396FFF72DFD00284BDB99F866
:105BE8005D004D4B01281ED00820059304F0B4FB3E
:105BF800059B4A4A93F85E0052F82060002E4ED06A
:105C08000593FFF74BFC059B21462A460020B04729
:105C18006FF0080004F0A0FB3846514622462B4698
:105C28000AF052FEBFE7BBF1000F01D0FBF766FA9E
:105C38003B4801F04BFF28B13A49FAF731FC0646D8
:105C480000284ED0D9F86020601E130643EA126E71
:105C580002F47F414EEA012302F47F0243EA122C48
:105C6800291DE04700209FE73846514622462B462B
:105C7800FFF7DEFE98E7B0F1FF3F46D010F1020FC4
:105C880023D010F1030FAAD1BBF1000F01D0FBF70D
:105C980035FA6FF0060004F05FFB012084E7BBF1E2
:105CA800000F04D0FBF72AFA059991F85E0003F07B
:105CB8006DFF99F85E2001461B4802F029FD6FF040
:105CC800070004F049FB01206EE7D9F84410A9B198
:105CD80099F822E0BEF1040F81D1144802F000FDCA
:105CE8007DE706ACD9F854201149204607F000FAA0
:105CF8002146104802F00AF9304655E70E4802F0EE
:105D0800EFFC6FF0700004F027FB3846514622463E
:105D18002B460AF0D9FD62E728360020B83001008A
